:020000040800F2
:10000000F07F00201D900008317300083373000852
:1000100035730008377300083973000800000000CA
:100020000000000000000000000000004157000830
:100030003B73000800000000D15700083D73000822
:1000400065900008659000086590000865900008BC
:1000500065900008659000086590000865900008AC
:1000600065900008659000086590000865730008B9
:10007000659000086590000865900008659000088C
:1000800065900008659000085973000865900008A5
:100090004D730008659000086590000865900008A1
:1000A000659000086590000865900008659000085C
:1000B000659000086590000865900008659000084C
:1000C000659000086590000865900008659000083C
:1000D000659000086590000865900008659000082C
:1000E000659000086590000865900008659000081C
:1000F000659000086590000865900008659000080C
:1001000065900008659000086590000865900008FB
:1001100065900008659000086590000800000000E8
:1001200065900008000000000000000000000000D2
:0C01300000000000000000005FF808F173
:1001400010B5054C237833B9044B13B10448AFF311
:1001500000800123237010BD300200200000000049
:1001600080A3000808B5034B1BB103490348AFF354
:10017000008008BD000000003402002080A30008B9
:10018000034613F8012B002AFBD1181A01387047D7
:1001900081F0004102E000BF83F0004330B54FEA38
:1001A00041044FEA430594EA050F08BF90EA020FA5
:1001B0001FBF54EA000C55EA020C7FEA645C7FEA38
:1001C000655C00F0E2804FEA5454D4EB5555B8BF5B
:1001D0006D420CDD2C4480EA020281EA030382EACC
:1001E000000083EA010180EA020281EA0303362D5E
:1001F00088BF30BD11F0004F4FEA01314FF4801C31
:100200004CEA113102D0404261EB410113F0004F42
:100210004FEA03334CEA133302D0524263EB4303F9
:1002200094EA050F00F0A780A4F10104D5F1200E97
:100230000DDB02FA0EFC22FA05F2801841F10001F2
:1002400003FA0EF2801843FA05F359410EE0A5F1C6
:1002500020050EF1200E012A03FA0EFC28BF4CF0F7
:10026000020C43FA05F3C01851EBE37101F00045AD
:1002700007D54FF0000EDCF1000C7EEB00006EEBBA
:100280000101B1F5801F1BD3B1F5001F0CD3490844
:100290005FEA30004FEA3C0C04F101044FEA44529B
:1002A00012F5800F80F09A80BCF1004F08BF5FEA22
:1002B000500C50F1000041EB045141EA050130BD02
:1002C0005FEA4C0C404141EB0101013C28BFB1F514
:1002D000801FE9D291F0000F04BF01460020B1FA5F
:1002E00081F308BF2033A3F10B03B3F120020CDA32
:1002F0000C3208DD02F1140CC2F10C0201FA0CF010
:1003000021FA02F10CE002F11402D8BFC2F1200C74
:1003100001FA02F120FA0CFCDCBF41EA0C0190402A
:10032000E41AA2BF01EB0451294330BD6FEA040473
:100330001F3C1CDA0C340EDC04F11404C4F120025E
:1003400020FA04F001FA02F340EA030021FA04F370
:1003500045EA030130BDC4F10C04C4F1200220FAC7
:1003600002F001FA04F340EA0300294630BD21FA05
:1003700004F0294630BD94F0000F83F4801306BFCB
:1003800081F480110134013D4EE77FEA645C18BFBF
:100390007FEA655C29D094EA050F08BF90EA020F56
:1003A00005D054EA000C04BF1946104630BD91EA4E
:1003B000030F1EBF0021002030BD5FEA545C05D151
:1003C0004000494128BF41F0004130BD14F5800490
:1003D0003CBF01F5801130BD01F0004545F0FE4104
:1003E00041F470014FF0000030BD7FEA645C1ABF39
:1003F000194610467FEA655C1CBF0B46024650EA70
:10040000013406BF52EA033591EA030F41F400219B
:1004100030BD00BF90F0000F04BF0021704730B521
:100420004FF4806404F132044FF000054FF00001F6
:1004300050E700BF90F0000F04BF0021704730B5B7
:100440004FF4806404F1320410F0004548BF40428C
:100450004FF000013EE700BF42004FEAE2014FEAE1
:1004600031014FEA02701FBF12F07F4393F07F4FBC
:1004700081F06051704732F07F4208BF704793F0BF
:100480007F4F04BF41F40021704730B54FF46074D2
:1004900001F0004521F000411CE700BF50EA0102D5
:1004A00008BF704730B54FF000050AE050EA01027E
:1004B00008BF704730B511F0004502D5404261EBEE
:1004C00041014FF4806404F132045FEA915C3FF42F
:1004D000D8AE4FF003025FEADC0C18BF03325FEACC
:1004E000DC0C18BF033202EBDC02C2F1200300FA7D
:1004F00003FC20FA02F001FA03FE40EA0E0021FAA2
:1005000002F11444BDE600BF70B54FF0FF0C4CF48F
:10051000E06C1CEA11541DBF1CEA135594EA0C0F41
:1005200095EA0C0F00F0DEF82C4481EA030621EA7C
:100530004C5123EA4C5350EA013518BF52EA0335B7
:1005400041F4801143F4801338D0A0FB02CE4FF069
:100550000005E1FB02E506F00042E0FB03E54FF099
:100560000006E1FB03569CF0000F18BF4EF0010E91
:10057000A4F1FF04B6F5007F64F5407404D25FEA8D
:100580004E0E6D4146EB060642EAC62141EA555140
:100590004FEAC52040EA5E504FEACE2EB4F1FD0C82
:1005A00088BFBCF5E06F1ED8BEF1004F08BF5FEA00
:1005B000500E50F1000041EB045170BD06F00046B2
:1005C00046EA010140EA020081EA0301B4EB5C045F
:1005D000C2BFD4EB0C0541EA045170BD41F4801157
:1005E0004FF0000E013C00F3AB8014F1360FDEBF7C
:1005F000002001F0004170BDC4F10004203C35DA58
:100600000C341BDC04F11404C4F1200500FA05F3DA
:1006100020FA04F001FA05F240EA020001F000427B
:1006200021F0004110EBD37021FA04F642EB0601F1
:100630005EEA430E08BF20EAD37070BDC4F10C041B
:10064000C4F1200500FA04F320FA05F001FA04F2DF
:1006500040EA020001F0004110EBD37041F10001CB
:100660005EEA430E08BF20EAD37070BDC4F12005D6
:1006700000FA05F24EEA020E20FA04F301FA05F23E
:1006800043EA020321FA04F001F0004121FA04F2E6
:1006900020EA020000EBD3705EEA430E08BF20EAB6
:1006A000D37070BD94F0000F0FD101F000464000F0
:1006B00041EB010111F4801F08BF013CF7D041EA72
:1006C000060195F0000F18BF704703F00046520076
:1006D00043EB030313F4801F08BF013DF7D043EA47
:1006E0000603704794EA0C0F0CEA135518BF95EAFD
:1006F0000C0F0CD050EA410618BF52EA4306D1D184
:1007000081EA030101F000414FF0000070BD50EAA2
:10071000410606BF1046194652EA430619D094EA2C
:100720000C0F02D150EA013613D195EA0C0F05D116
:1007300052EA03361CBF104619460AD181EA03016A
:1007400001F0004141F0FE4141F470014FF0000022
:1007500070BD41F0FE4141F4780170BD70B54FF0BD
:10076000FF0C4CF4E06C1CEA11541DBF1CEA13553D
:1007700094EA0C0F95EA0C0F00F0A7F8A4EB05041F
:1007800081EA030E52EA03354FEA013100F0888016
:100790004FEA03334FF0805545EA131343EA1263DF
:1007A0004FEA022245EA111545EA10654FEA002694
:1007B0000EF000419D4208BF964244F1FD0404F54D
:1007C000407402D25B084FEA3202B61A65EB0305A9
:1007D0005B084FEA32024FF480104FF4002CB6EB66
:1007E000020E75EB030E22BFB61A754640EA0C00E6
:1007F0005B084FEA3202B6EB020E75EB030E22BF26
:10080000B61A754640EA5C005B084FEA3202B6EB66
:10081000020E75EB030E22BFB61A754640EA9C0025
:100820005B084FEA3202B6EB020E75EB030E22BFF5
:10083000B61A754640EADC0055EA060E18D04FEAB3
:10084000051545EA16754FEA06164FEAC30343EA53
:1008500052734FEAC2025FEA1C1CC0D111F4801F20
:100860000BD141EA00014FF000004FF0004CB6E719
:1008700011F4801F04BF01430020B4F1FD0C88BFB8
:10088000BCF5E06F3FF6AFAEB5EB030C04BFB6EBC3
:10089000020C5FEA500C50F1000041EB045170BDB6
:1008A0000EF0004E4EEA113114EB5C04C2BFD4EBE3
:1008B0000C0541EA045170BD41F480114FF0000E67
:1008C000013C90E645EA060E8DE60CEA135594EAE3
:1008D0000C0F08BF95EA0C0F3FF43BAF94EA0C0FE6
:1008E0000AD150EA01347FF434AF95EA0C0F7FF45B
:1008F00025AF104619462CE795EA0C0F06D152EAAF
:1009000003353FF4FDAE1046194622E750EA410692
:1009100018BF52EA43067FF4C5AE50EA41047FF4A3
:100920000DAF52EA43057FF4EBAE12E74A0011D255
:1009300012F5001211D20DD56FF47873B3EB625239
:100940000ED44FEAC12343F0004343EA505323FA45
:1009500002F070474FF00000704750EA013002D1BA
:100960004FF0FF3070474FF0000070474FEA4102F0
:10097000B2F1E04324BFB3F5001CDCF1FE5C0DD9FD
:1009800001F0004C4FEAC0024CEA5070B2F1004F47
:1009900040EB830008BF20F00100704711F0804F4A
:1009A00021D113F13872BCBF01F00040704741F40F
:1009B00080114FEA5252C2F11802C2F1200C10FA13
:1009C0000CF320FA02F018BF40F001004FEAC123F7
:1009D0004FEAD32303FA0CFC40EA0C0023FA02F39B
:1009E0004FEA4303CCE77FEA625307D150EA013371
:1009F0001EBF4FF0FE4040F44000704701F0004041
:100A000040F0FE4040F40000704700BF80F000401E
:100A100002E000BF81F0004142001FBF5FEA4103D6
:100A200092EA030F7FEA226C7FEA236C6AD04FEAD6
:100A30001262D2EB1363C1BFD2184140484041401B
:100A4000B8BF5B42192B88BF704710F0004F40F4CD
:100A5000000020F07F4018BF404211F0004F41F4E9
:100A6000000121F07F4118BF494292EA030F3FD0B5
:100A7000A2F1010241FA03FC10EB0C00C3F12003C8
:100A800001FA03F100F0004302D5494260EB400057
:100A9000B0F5000F13D3B0F1807F06D340084FEAC2
:100AA000310102F10102FE2A51D2B1F1004F40EBB7
:100AB000C25008BF20F0010040EA0300704749001F
:100AC00040EB0000013A28BFB0F5000FEDD2B0FABC
:100AD00080FCACF1080CB2EB0C0200FA0CF0AABFDF
:100AE00000EBC25052421843BCBFD040184370477D
:100AF00092F0000F81F4000106BF80F40000013283
:100B0000013BB5E74FEA41037FEA226C18BF7FEA59
:100B1000236C21D092EA030F04D092F0000F08BF9B
:100B20000846704790EA010F1CBF0020704712F082
:100B30007F4F04D1400028BF40F00040704712F1C1
:100B400000723CBF00F50000704700F0004343F026
:100B5000FE4040F4000070477FEA226216BF08465C
:100B60007FEA23630146420206BF5FEA412390EA1F
:100B7000010F40F4800070474FF0000304E000BF15
:100B800010F0004348BF40425FEA000C08BF7047C6
:100B900043F0964301464FF000001CE050EA01028A
:100BA00008BF70474FF000030AE000BF50EA01029F
:100BB00008BF704711F0004302D5404261EB41018C
:100BC0005FEA010C02BF84460146002043F0B643B1
:100BD00008BFA3F18053A3F50003BCFA8CF2083AD6
:100BE000A3EBC25310DB01FA02FC634400FA02FCDF
:100BF000C2F12002BCF1004F20FA02F243EB0200E6
:100C000008BF20F00100704702F1200201FA02FC47
:100C1000C2F1200250EA4C0021FA02F243EB02003A
:100C200008BF20EADC7070474FF0FF0C1CEAD0527E
:100C30001EBF1CEAD15392EA0C0F93EA0C0F6FD03F
:100C40001A4480EA010C400218BF5FEA41211ED01D
:100C50004FF0006343EA501043EA5111A0FB013109
:100C60000CF00040B1F5000F3EBF490041EAD371DE
:100C70005B0040EA010062F17F02FD2A1DD8B3F15A
:100C8000004F40EBC25008BF20F00100704790F0C9
:100C9000000F0CF0004C08BF49024CEA502040EA1B
:100CA00051207F3AC2BFD2F1FF0340EAC2507047E1
:100CB00040F400004FF00003013A5DDC12F1190F1F
:100CC000DCBF00F000407047C2F10002410021FA91
:100CD00002F1C2F1200200FA02FC5FEA310040F1A9
:100CE000000053EA4C0308BF20EADC70704792F022
:100CF000000F00F0004C02BF400010F4000F013A5A
:100D0000F9D040EA0C0093F0000F01F0004C02BF54
:100D1000490011F4000F013BF9D041EA0C018FE7C3
:100D20000CEAD15392EA0C0F18BF93EA0C0F0AD0C9
:100D300030F0004C18BF31F0004CD8D180EA0100EF
:100D400000F00040704790F0000F17BF90F0004F88
:100D5000084691F0000F91F0004F14D092EA0C0F6A
:100D600001D142020FD193EA0C0F03D14B0218BFFD
:100D7000084608D180EA010000F0004040F0FE4043
:100D800040F40000704740F0FE4040F440007047DF
:100D90004FF0FF0C1CEAD0521EBF1CEAD15392EA5E
:100DA0000C0F93EA0C0F69D0A2EB030280EA010C4E
:100DB00049024FEA402037D04FF0805343EA1111E7
:100DC00043EA10130CF000408B4238BF5B0042F145
:100DD0007D024FF4000C8B4224BF5B1A40EA0C00EA
:100DE000B3EB510F24BFA3EB510340EA5C00B3EB1C
:100DF000910F24BFA3EB910340EA9C00B3EBD10F0A
:100E000024BFA3EBD10340EADC001B0118BF5FEA5B
:100E10001C1CE0D1FD2A3FF650AF8B4240EBC25084
:100E200008BF20F0010070470CF0004C4CEA502045
:100E30007F32C2BFD2F1FF0340EAC250704740F494
:100E400000004FF00003013A37E792F0000F00F086
:100E5000004C02BF400010F4000F013AF9D040EA04
:100E60000C0093F0000F01F0004C02BF490011F498
:100E7000000F013BF9D041EA0C0195E70CEAD15390
:100E800092EA0C0F08D142027FF47DAF93EA0C0F77
:100E90007FF470AF084676E793EA0C0F04D14B025B
:100EA0003FF44CAF08466EE730F0004C18BF31F00D
:100EB000004CCAD130F000427FF45CAF31F0004307
:100EC0007FF43CAF5FE700BF53B94AB9002908BFC0
:100ED00000281CBF4FF0FF314FF0FF3000F076B913
:100EE000ADF1080C6DE904CE00F006F8DDF804E081
:100EF000DDE9022304B070472DE9F047089E0D4656
:100F000004468846002B4DD18A42944668D9B2FAED
:100F100082F252B101FA02F3C2F1200120FA01F18A
:100F20000CFA02FC41EA030894404FEA1C41B8FB6A
:100F3000F1F71FFA8CFE01FB178807FB0EF0230C5C
:100F400043EA084398420AD91CEB030307F1FF3533
:100F500080F01E81984240F21B81023F63441B1ABD
:100F6000B3FBF1F001FB103300FB0EFEA4B244EA28
:100F70000344A6450AD91CEB040400F1FF3380F0BA
:100F80000981A64540F20681644402380021A4EBA1
:100F90000E0440EA07401EB10023D440C6E90043D6
:100FA000BDE8F0878B4208D9002E00F0EE800021CA
:100FB000C6E900050846BDE8F087B3FA83F10029C9
:100FC0004AD1AB4202D3824200F2FC80841A65EB24
:100FD000030301209846002EE2D0C6E90048DFE76F
:100FE00002B9FFDEB2FA82F2002A40F09180A1EB52
:100FF0000C0001214FEA1C471FFA8CFEB0FBF7F3EF
:1010000007FB1300250C45EA00450EFB03F0A84240
:1010100008D91CEB050503F1FF3802D2A84200F203
:10102000CE8043462D1AB5FBF7F007FB10550EFB9B
:1010300000FEA4B244EA0544A64508D91CEB04040A
:1010400000F1FF3502D2A64500F2B6802846A4EB97
:101050000E0440EA03409EE7C1F120078B4022FACC
:1010600007FC4CEA030C25FA07FA4FEA1C49BAFBC5
:10107000F9F820FA07F309FB18AA8D401FFA8CFE35
:101080001D4300FA01F308FB0EF02C0C44EA0A445D
:10109000A04202FA01F20BD91CEB040408F1FF3A5A
:1010A00080F08880A04240F28580A8F10208644464
:1010B000241AB4FBF9F009FB104400FB0EFEADB29C
:1010C00045EA0444A64508D91CEB040400F1FF35A9
:1010D0006CD2A6456AD90238644440EA0840A0FBB5
:1010E0000295A4EB0E04AC42C846AE4656D353D08C
:1010F000002E69D0B3EB080264EB0E0422FA01F370
:1011000004FA07F71F43CC40C6E90074002147E703
:101110000CFA02FCC2F1200125FA01F34FEA1C4748
:1011200020FA01F195400D43B3FBF7F107FB1133B2
:101130001FFA8CFE280C40EA034001FB0EF38342A9
:1011400004FA02F408D91CEB000001F1FF382FD299
:1011500083422DD902396044C01AB0FBF7F307FB74
:101160001300ADB245EA004503FB0EF0A84208D9D2
:101170001CEB050503F1FF3816D2A84214D9023B37
:101180006544281A43EA014138E73146304607E70B
:101190002F46E4E61846F9E64B45A9D2B9EB02081A
:1011A00065EB0C0E0138A3E74346EAE7284694E7CF
:1011B0004146D1E7D0467BE76444023847E7023B2B
:1011C00065442FE7084606E73146E9E6704700BF69
:1011D00008B54FF40051024801F0BEF808BD00BF49
:1011E00000080240021E18BF01224FF400610148AE
:1011F00001F0B8B800040240021E18BF01224FF4EB
:101200000051014801F0AEB800040240021E18BFB0
:1012100001224FF48051014801F0A4B800040240BB
:1012200070B50C4605461046FFF7E6FF631E5C42AC
:101230005C41102D09D00B48224600EBC500818887
:10124000BDE87040806801F08DB80026064D298801
:1012500068682246013601F085F8102E05F1080570
:10126000F5D170BD98A300089CA3000870B5064690
:101270000120FFF7C1FF00240A4D331B5A42298881
:1012800068685A41013401F06DF8102C05F1080529
:10129000F3D1054BD86903F0B9FCBDE870400020DC
:1012A000FFF7AABF9CA3000800080808012200213C
:1012B0001020FFF7B5BF0000F0B500258BB0CDE9D9
:1012C0000755374B0995DA69032642F00102DA61C6
:1012D000DA69344F02F001020192019ADA69384664
:1012E00042F00202DA61DA6905A902F00202029212
:1012F000029ADA69012442F00402DA61DA6902F042
:1013000004020392039ADA6942F00802DA61DB69A7
:1013100003F008030493049B1F23CDE9053600F076
:1013200055FF48F2E073384605A9CDE9053400F0D1
:101330004DFF4BF6FF7307F58067384605A9CDE9E9
:10134000053400F043FF4FF48043384605A9CDE94A
:10135000053600F03BFF0F23CDE90536124E05A9F7
:10136000304600F033FF41F6F073304605A9CDE971
:10137000053400F02BFF042305A90C48CDE9053402
:1013800000F024FF224629461020FFF749FF284697
:10139000FFF73CFF2046FFF725FF0BB0F0BD00BF75
:1013A000003802400000024000080240000C0240E9
:1013B00010B5184CE3688BB1E3697BB123696BB15D
:1013C000A3695BB163694BB1A3683BB163682BB19F
:1013D000A36A1BB1236883B101200DE0206858B1D6
:1013E00000F0FAFD0B49022000F012FE002210204E
:1013F000084900F02BFE002010BD00F0EDFD214655
:10140000022000F005FE01222146102000F01EFE01
:10141000E2E700BF00080808FFF7CABF70470000F6
:1014200070B50F4E0546306808B9012070BD4FF405
:101430007A73B3FBF0F30B4A1068B0FBF3F000F0E3
:101440006DFB04460028F0D10F2DEED80246294648
:101450004FF0FF3000F022FB20467560E6E700BF4A
:1014600000000020240100200B4B10B51A68032057
:1014700042F004021A601A6842F002021A6000F098
:10148000FBFA0F20FFF7CCFF044618B9FFF7C6FFA1
:10149000204610BD0124FBE7003C0240034A0449FA
:1014A000136809680B441360704700BF4C020020AA
:1014B00000000020014B1868704700BF4C0200205C
:1014C000F7B5044608B9012095E0C36C73B903650C
:1014D00080F84830564B1A6A42F001021A621B6AC1
:1014E00003F001030193019B05F09EFEE36CDB0614
:1014F000E9D4E36C4F4A23F4885323F0020343F00A
:101500000203E3645368616823F440330B43536080
:101510004FF4007191FAA1F10223B1FA81F194F82C
:10152000245093FAA3F3B3FA83F36069E26805FAEF
:1015300003F30243206A2669024394F83C0000FA50
:1015400001F10A431343626B2068102A1CBFA16B90
:101550000A43016818BF134311F0400124D1A26966
:10156000E7691343A268B6F5807F42EA070244D0D8
:10157000012E08BF4FF480710A4394F82C10012902
:101580000DD1002D3BD14FF4604191FAA1F1B1FA98
:1015900081F5216B0139A9400A4342F40062456894
:1015A000254929400A4342608168244AB6F5807F74
:1015B00002EA010242EA0302826001D0012E27D131
:1015C000056B4FF0F87292FAA2F2B2FA82F1A26AB7
:1015D000013A8A4025F0F8710A4302638168184A8B
:1015E0000A409A4218D100202065E36C23F00303DF
:1015F00043F00103E36403B0F0BD3146BCE7E16CA6
:1016000041F02001E164216D41F001012165C6E74F
:10161000026B22F0F872E0E7E36C23F0120343F070
:101620001003E364236D43F0010323654BE700BF20
:101630000038024000270140FF16FCFC89F1FFC082
:10164000FEFF80BF436A10B5DA6C12F0500F25D14F
:10165000DA6C42F40072DA641A68916811F0405F43
:1016600018D193F82410A9B9116B11F0F87F02D0AA
:10167000916849050ED4516821F020015160DA6C5F
:1016800022F48072DA64DA6CD2045EBFDA6C42F063
:101690000102DA64184605F087F810BD5B6CBDE8FE
:1016A00010401B6B184708B5406A05F085F808BD67
:1016B0007047406A08B5C36C43F04003C364036DD0
:1016C00043F00403036505F079F808BD036870B5BD
:1016D0001D685E680446B0062CD5A9072AD5E26CC1
:1016E000D2065EBFE26C42F40072E2649A6812F0C5
:1016F000405F18D194F82420AAB91A6B12F0F87F31
:1017000002D09A6850050ED45A6822F020025A601E
:10171000E36C23F48073E364E36CD9045EBFE36C91
:1017200043F00103E364204605F03EF86FF0120237
:1017300023681A60320634D56B0732D5E36CD806BD
:101740005EBFE36C43F40053E36423689A6812F4C9
:10175000401F1FD15A6C12F4401F02D09A685105E5
:1017600018D45A68520515D49A6812F0405F11D106
:1017700094F8242072B95A6822F080025A60E36C0F
:1017800023F48053E364E36CDB055EBFE36C43F05A
:101790000103E364204600F06DF96FF00C0223684A
:1017A0001A6070060CD5E9070AD5E36C204643F4AD
:1017B0008033E364FFF77CFF6FF0010223681A6057
:1017C00072010ED5AB060CD56FF02005236D2046B7
:1017D00043F00203236523681D6004F0EFFF2368D4
:1017E0001D6070BD002373B5019390F84830012B44
:1017F00000F09980012380F848304D680468062D78
:101800000A6805EB850322D81F26256C053B9E4000
:1018100025EA060502FA03F32B432364092A48D874
:10182000072663698D6802EB4202964023EA0603AD
:1018300005FA02F21A4362610968A1F11003012B53
:1018400059D9002380F84830184602B070BD0C2DDD
:101850000AD81F26E56B233B9E4025EA060502FABF
:1018600003F32B43E363D9E7122D0AD81F26A56B98
:10187000413B9E4025EA060502FA03F32B43A3638E
:10188000CCE7182D4FF01F0509D8666B5F3B9D40D4
:1018900026EA050502FA03F32B436363BEE7266BD2
:1018A0007D3B9D4026EA050502FA03F32B432363A3
:1018B000B4E7132A0DD802EB4202A2F11E0507225B
:1018C0002369AA4023EA02028B68AB401A432261D3
:1018D000B2E71A2A0DD8072502EB4202E3683C3A28
:1018E000954023EA05038D6805FA02F21A43E26087
:1018F000A2E700BFA0E70D4B5A681202A1D45A68B4
:10190000102942F400025A609BD1094B094A1B6816
:10191000B3FBF2F30A2253430193019B002B90D0B7
:10192000019B013BF8E702208FE700BF0027014041
:101930002401002040420F00002337B501930368C3
:1019400004461A68520602D5002003B030BD9A68DA
:1019500042F001029A60154B154A1B68B3FBF2F383
:1019600003EB43030193019BE3B9FFF7A3FD054696
:1019700023681B685B06E7D4FFF79CFD401B022829
:10198000F6D923681B6813F04003F1D1E26C012003
:1019900042F01002E264226D84F8483042F0010205
:1019A0002265D2E7019B013BDCE700BF2401002058
:1019B00040420F002DE9F04190F848300446012BD9
:1019C0000F4690464ED0012380F84830FFF7B4FF11
:1019D0000646002843D1E56C216825F4E06525F032
:1019E000010545F48075E5644B683A465B0548BFE0
:1019F000E06C01F1580142BF20F4405040F48050A7
:101A0000E064E36C606C13F480531CBF236D23F01F
:101A100006032365002384F84830134B8362134B7D
:101A2000C362134B03636FF0220341F8583C51F833
:101A3000543C43F0806341F8543C51F8503C43F42B
:101A4000807341F8503C434600F076F923689A6869
:101A500012F0405F03D19A6842F080429A603046AB
:101A6000BDE8F0810226FAE745160008A71600082F
:101A7000B31600087047000007490302CA6803F460
:101A8000E06322F4E0621204120C134343F0BF63DC
:101A900043F40033CB60704700ED00E0164B30B5E7
:101AA000DC68C4F30224C4F10703251D042B28BFFE
:101AB0000423062D4FF0FF3598BF002405FA03F3E9
:101AC00088BF033C21EA0303A34005FA04F422EA99
:101AD0000402002843EA0203ACBF00F16040074A59
:101AE0004FEA0313DBB2ABBF00F5614000F00F001B
:101AF00080F80033135430BD00ED00E014ED00E039
:101B0000002808DB0123420900F01F0003FA00F05F
:101B1000014B43F82200704700E100E00138B0F1CA
:101B2000807F0BD24FF0E023F021054A586182F804
:101B300023100020072298611A6170470120704726
:101B400000ED00E010B5044668B1037903F0FF0230
:101B500013B9427105F0C6FB022300202371012353
:101B60002061237110BD0120FCE7034630B530B37E
:101B700042790220012A16D0187101201A6801F05A
:101B800010041568A0402843106069B9116801F07D
:101B90003C013C2903D1516841F00101516001220F
:101BA00000201A71587130BD3C211068A14000F42A
:101BB00070108842F3D1516841F00201EEE7012034
:101BC000F1E713B50024019470B10068019041B9A8
:101BD0000199083100200A440192019A136002B071
:101BE00010BD01991431F5E70120F8E7034630B53F
:101BF00008B301B3407901284FF002001AD01871E0
:101C000040F6FE701C6802F010022568904025EA3C
:101C10000005D1E900010143C02091402943216022
:101C2000216800FA02F221EA020222600020012269
:101C300058711A7130BD0120FCE7000010B5002872
:101C400035D001681B4B1424994228D81A4AA3F2B4
:101C500007430A44B2FBF4F292000264C363022316
:101C600080F82130D0E901342343C4680A68234353
:101C7000046922F4FF422343446922F070022343A3
:101C800084692343C469234313430B600122002367
:101C9000836380F8203080F82120184610BD074B60
:101CA0000B44B3FBF4F39B000364054BD6E7012020
:101CB000F4E700BF07640240F89FFDBFF89BFDBF3B
:101CC0000064024010B568B3016814240B6823F067
:101CD00001030B60144B99421CD8144AA3F207432A
:101CE0000A44B2FBF4F292000264C3630023D0E919
:101CF0000F420B6002F01C0101228A406260836384
:101D0000C0E90A33C0E90C3380F8213080F8203074
:101D1000184610BD064B0B44B3FBF4F39B00036461
:101D2000044BE2E70120F4E707640240F89FFDBF9F
:101D3000F89BFDBF00640240F0B590F82040012CF4
:101D400036D0012480F8204090F821400026012C54
:101D5000E5B24FF0020429D180F82140046886637F
:101D6000266826F001062660D0E90F6707F01C07F9
:101D7000BD40756063604368102BC36A0BBFA260EF
:101D8000A160E160E2604BB1236843F00E030020E4
:101D90002360236843F001032360F0BD236823F030
:101DA00004032360236843F00A03F0E780F820600F
:101DB0000220F2E770B40424C16B026C0E6802F0DA
:101DC0001C020368944034421D680ED015F0040FC5
:101DD0000BD01A6892065EBF1A6822F004021A60DD
:101DE000C36A4C6073B370BC1847022494403442F9
:101DF00012D015F0020F0FD01A68950606D41A6893
:101E000022F00A021A60012380F8213000234C607E
:101E100080F82030836AE5E708249440344211D0EA
:101E20002C070FD51C6824F00E041C60012303FA54
:101E300002F24A60836380F82130002380F820306A
:101E4000036BCFE770BC7047214A936913F480732A
:101E500006D020494B6943F002034B614FF4807375
:101E60009269920506D51B4943F400734A6942F012
:101E700001024A6116498A69100506D5154843F4DE
:101E80000063426942F0040242618A69920406D505
:101E9000104943F400534A6942F010024A610C4968
:101EA0008A69D00406D50B4843F48053426942F056
:101EB000200242618A69520506D5064943F48063CF
:101EC0004A6942F008024A61014A9361704700BFC3
:101ED000003C0240500200200F4B586810F00200F6
:101EE00018D05A68D2070DD40B4B0C4A1A61A2F1D4
:101EF000F342A2F51922A2F6A9121A615868C0F39A
:101F000040007047064ADA60064ADA605B68DB0721
:101F1000EAD50120704700BF003C0240BFAE9D8C57
:101F2000EFCDAB8905040302034A0020536843F058
:101F300002035360704700BF003C024070B5054685
:101F4000FFF7B8FA0646154CA369DB071BD4A36953
:101F50009E0744BF0223A361A369DD050FD4A369D3
:101F600018050CD4A369990409D4A369DA0406D42A
:101F7000A3695B0503D4A06910F4007007D0FFF7D4
:101F800063FF012003E06A1CDED00DB9032070BDA1
:101F9000FFF790FA801BA842D6D9F7E7003C024031
:101FA00070B50C4C0D46237C1646012B0FD0012337
:101FB0004CF250302374FFF7C1FF28B960614CF236
:101FC00050302E60FFF7BAFF0023237470BD02204B
:101FD000FCE700BF50020020054B5A68D20741BF02
:101FE000044A0020DA60044A54BF0120DA607047D6
:101FF000003C0240EFCDAB8905040302034A0020F8
:10200000536843F001035360704700BF003C024037
:1020100038B504464CF250300D46FFF78FFF90B9AB
:10202000094A022C506106D128604CF25030BDE8BC
:102030003840FFF783BF012C03D0002CF5D12C7062
:10204000F3E72880F1E738BD500200202DE9F04188
:10205000304C0746237C0E46012B154658D04FF0D6
:1020600001084CF2503084F81080FFF767FFF8B990
:10207000022F606106D14CF25030FFF75FFFB8B914
:10208000356011E0012F07D14CF25030FFF756FFB9
:1020900070B9ADB2358007E077B94CF25030FFF738
:1020A0004DFF28B9EDB235704CF25030FFF746FFC6
:1020B00000232374BDE8F081042F0BD14CF2503083
:1020C000FFF73CFF0028F3D1134A536823F48073D1
:1020D0005360E7E7082F0BD14CF25030FFF72EFF8B
:1020E0000028E5D10C4A536823F480735360D0E78D
:1020F000102F0BD14CF25030FFF720FF0028D7D122
:10210000054A536823F480735360B9E74046CFE72C
:102110000220CFE750020020003C02400021074B84
:1021200020F0FF005961064B5A6842F400725A6071
:102130005A6842F008025A6001607047500200205D
:10214000003C02402DE9F843DFF87890064699F804
:1021500010300F46012B33D001234CF2503089F858
:102160001030FFF7EBFE044608BB4FF0FF333B6037
:102170007568DFF85480D6E9013203EB0223AB42E5
:1021800015D92846FFF7CAFF4CF25030FFF7D6FEAC
:10219000D8F8043023F00803C8F80430D8F8043025
:1021A00023F40073C8F8043038B104463D600023BE
:1021B00089F810302046BDE8F88305F58075DAE728
:1021C0000224F7E750020020003C024000232DE9E2
:1021D000F74FDFF878915E4C0A6832FA03F502D1C6
:1021E00003B0BDE8F08F012505FA03FE1EEA0202E6
:1021F00000F0A2804FF0030C4E684FEA430806F04F
:1022000003056F1E0CFA08FC012F6FEA0C0C34D882
:10221000876807EA0C0ACF6807FA08F747EA0A074F
:102220008760476827EA0E0EC6F300179F4047EA0B
:102230000E074760C768022D07EA0C0E8F6807FA81
:1022400008F747EA0E07C76019D14FF00F0E4FEAA3
:10225000D30A00EB8A0A03F0070BDAF820704FEA82
:102260008B0B0EFA0BFE27EA0E0E0F6907FA0BF71F
:1022700047EA0E07CAF8207001E0032DDAD107689B
:1022800005FA08F507EA0C072F4316F4403F0760EC
:1022900052D04FF00F0CD9F8205023F0030745F02F
:1022A0000105C9F82050D9F8205007F1804705F002
:1022B0000105019507F5803703F0030E019D4FEAF4
:1022C0008E0EBD680CFA0EFC25EA0C0C214DA842BE
:1022D00034D005F58065A84232D005F58065A84266
:1022E00030D005F58065A8422ED005F58065A8425E
:1022F0000CBF0425052505FA0EF545EA0C05BD6061
:10230000D743A56816F4801F0CBF3D401543A56058
:10231000E56816F4001F0CBF3D401543E560656895
:1023200016F4003F0CBF3D40154365602568F60379
:1023300054BF3D401543256001334DE70025DAE7E2
:102340000125D8E70225D6E70325D4E70038024067
:1023500000040140000002400369194214BF01203B
:10236000002070470AB1816170470904FBE7F0B5AE
:10237000044687B000284DD090F8A93203F0FF0240
:102380001BB980F8A82206F0AFFC0323206884F86C
:10239000A93201F0E7FE00232826012719466568C7
:1023A000D8B2854203F101031BD800232826194621
:1023B000D8B2854203F101031FD86D4604F110061F
:1023C0000FCE0FC533682B60231D0ECB206801F0A4
:1023D000D3FE0020012384F8240084F8A93207B03A
:1023E000F0BD06FB0042C2E90E1182F8297082F8A6
:1023F000280082F82B101164D2E706FB0042C2E9E4
:102400005E1182F8691182F8680182F86B11C2F8D6
:102410008011CDE70120E2E738B5044610B9012567
:10242000284638BD032380F8A932006802F054F929
:1024300005460028F3D1204606F090FC84F8A95206
:10244000EEE738B590F8A8320446012B10D00125EC
:1024500080F8A852006801F07CFE2946204606F06C
:102460005DFD206802F049F9002084F8A80238BD1B
:102470000220FCE710B590F8A8320446012B10D0DA
:10248000012380F8A832006801F06CFE002120468C
:1024900006F044FD206802F032F9002084F8A8021A
:1024A00010BD0220FCE710B590F8A8220446012ACE
:1024B0000BD0012280F8241080F8A822006802F0D6
:1024C00016F9002084F8A80210BD0220FCE70000E5
:1024D0002DE9F84F0446006802F013F910F40045A6
:1024E00000F02784DFF81C93DFF81C832068B0F825
:1024F00044301A0401D4BDE8F88FB0F84460B1B29A
:1025000016F00F0640F0C68011F010012BD10388A1
:102510009BB203EA090343F400430380B0F8503050
:1025200094F828209BB203EBC20300EB4300B0F801
:102530000434E26BC3F3090363641344E36320468A
:1025400006F027FC94F82430002BCFD0226C002A10
:10255000CCD194F82430216843F08003A1F84C30AA
:1025600084F82420C2E70588ABB215F4006521D0B9
:10257000B0F8503094F868219BB203EBC20300EB33
:102580004303B3F80C34B4F86E21C3F30903C4F861
:10259000843104F52C7102F000FB22682046138878
:1025A00023F070031B051B0D43F08003138006F01E
:1025B000E1FB9BE7190499D5038823F070031B0501
:1025C0001B0D43F080030380B0F8503094F868216D
:1025D0009BB203EBC20300EB4303B3F80C34C3F329
:1025E0000903C4F884318BB1D4F87C1171B1B4F80B
:1025F0006E2102F0D2FAD4F87C31D4F88421294635
:1026000013442046C4F87C3106F0BAFB21680A88DE
:1026100093B212053FF56AAF03F44053B3F5405F40
:102620003FF464AFB1F8503001F20C409BB2C25A93
:10263000D4F87851C2F309023E2DC2520CD9C25AC5
:102640006E09EF0608BF06F1FF3692B242EA862213
:1026500042EA080292B204E09DB9C25A92B242F430
:102660000042C2520B8823F4804323F070031B0402
:102670001B0C83F4405343F4004343F080030B806E
:1026800034E7C25A6E08ED0748BF013692B242EAFB
:102690008622DFE730F826301A049FB240F1F4803A
:1026A000282130F8263001FB064123F070031B057A
:1026B0001B0D43F0800320F8263091F8743100F5AB
:1026C000806CB3B9B0F8503091F868219BB20633F2
:1026D00003EBC2033CF81350C5F30905002D00F0CD
:1026E000B7802B46B1F86E21D1F87C1102F055FA73
:1026F000AEE091F86B2191F86831022A40F08680B3
:10270000B0F8505017F4804AD1F880214FEAC30B3B
:10271000ADB207F0400E3BD0AB440BF1020B3CF8DE
:102720001B50C5F30905954213D90022C1F8802139
:1027300030F8232022F4804222F070021204120C9E
:1027400082F4005242F4004242F0800220F823203A
:1027500004E0521BC1F88021002AE9D0BEF1000F2D
:102760000DD030F8232022F4E04222F0700212044F
:10277000120C42F4004242F0C00220F82320002D47
:1027800066D0282101FB06412B46B1F87021ABE74A
:102790005D4406353CF81550C5F30905954212D93C
:1027A000C1F880A130F8232022F4804222F0700288
:1027B0001204120C82F4005242F4004242F08002F1
:1027C00020F8232004E0521BC1F88021002AE9D020
:1027D000BEF1000F0DD130F8232022F4E04222F0A8
:1027E00070021204120C42F4004242F0C00220F8BF
:1027F00023206DB3282101FB06412B46B1F872213D
:1028000072E700BF0F8FFFFF0080FFFF30F823202B
:1028100022F4E04222F070021204120C42F4004250
:1028200042F0C00220F8232091F8683130F82320CC
:1028300012F4804F4FEAC302B0F850309BB256D02A
:10284000023313443CF81350C5F30905002D9BD106
:10285000282171436318D3F884212A44C3F88421C2
:10286000D3F87C212A44C3F87C21D3F880211AB103
:10287000D3F878319D4243D2282303FB06432046F8
:1028800093F8681106F07CFA3B067FF52FAE4FF007
:10289000280C20680CFB064530F826309BB203EA72
:1028A000090343F4004320F8263095F82B30012B20
:1028B00050D1002195F83430296493B317F04007C4
:1028C00095F8292095F8283031D002BBB0F8502077
:1028D0001B0192B200F2044010441A5AC2F30902DA
:1028E0001A521A5A92B242F400421A5219E00633AE
:1028F00013443CF81350C5F30905002DA8D07CE71C
:1029000001F5B4712068214401F00FFFBCE7012AF2
:1029100007D1B0F8502000F2044092B21B011044DD
:10292000195295F82810204606F033FADEE532B940
:10293000B0F850201B0192B200F20C40CCE7012A03
:10294000EFD1B0F8502000F20C4092B21B011044BD
:102950001F52E6E795F8281017F480722B6C4FEAA7
:10296000C10A00F5806E1CD1B0F85070BFB2BA44F5
:102970000AF1020A3EF81A70C7F309079F4201D311
:102980002A64D0E7DB1B2B64EB6B06FB0CCC3B44CF
:10299000EB636B6C04EB0C013B446B6401F0C5FE14
:1029A000A4E5B0F8502017F0400C92B2524407F45E
:1029B000804700F0DC8002323EF812204FF0280CF5
:1029C000C2F309029A4228BF00230CFB064C38BF11
:1029D0009B1ACCF84030BFB2002B4DD195F829207E
:1029E000002A36D1B0F850600B01B2B200F20446B2
:1029F0001644F25AC2F30902F252F25A92B242F467
:102A00000042F252B0F8502000F20C4092B2104452
:102A1000C25AC2F30902C252C25A92B242F40042EE
:102A2000C252204606F0B5F9002F00F0DC8095F880
:102A30002810226832F8213023F4E04323F0700399
:102A40001B041B0C43F4404343F0800322F8213065
:102A5000C9E0012AE5D1B0F850600A011FFA86FCEE
:102A600000F204466644B352B0F8506000F20C40E5
:102A7000B6B230448352D4E76FB130F8213023F43A
:102A8000E04323F070031B041B0C43F4404343F06A
:102A9000800320F82130282707FB064797F84C30A1
:102AA000012B40F0A080FB6BD7F848E003EB020C51
:102AB0007B6CC7F83CC013447B64BB6B9E452CD336
:102AC000AEEB0302BA6495F829201FFA83FE002AB0
:102AD00041D1B0F8502000F2044792B23A440901C3
:102AE000575A3E2BC7F30907575223D9DF06575AC7
:102AF0004FEA531A08BF0AF1FF3ABFB247EA8A27E2
:102B000047EA0807BFB257522821734601FB064621
:102B10006146328E01F0F9FD65E0BEF1000F03D190
:102B2000134687F84CE0CEE7002387F84C30BB64AF
:102B30007346C8E72BB9535A9BB243F40043535230
:102B4000E2E75F08DB07535A48BF01379BB243EA0D
:102B500087239BB2F3E7012AD6D1B0F850300901A0
:102B60009AB200F20443134423F801E0CCE70632A2
:102B70003EF81220BFB2C2F309029A4288BF6346F0
:102B80004FF0280C0CFB064C98BF9B1ACCF8403039
:102B9000002B4ED195F82920002A37D1B0F850608B
:102BA0000B01B2B200F204461644F25AC2F3090213
:102BB000F252F25A92B242F40042F252B0F850206D
:102BC00000F20C4092B21044C25AC2F30902C2523F
:102BD000C25A92B242F40042C252204606F0D9F8DC
:102BE000002F3FF424AF95F82810226832F82130E6
:102BF0009BB223F4E04323F0400383F0300343F41B
:102C0000004343F0800322F821306FE4012AE4D12D
:102C1000B0F850600A011FFA86FC00F204466644D0
:102C2000B352B0F8506000F20C40B6B23044835258
:102C3000D3E76FB930F8213023F4E04323F0700379
:102C40001B041B0C43F4404343F0800320F8213065
:102C50004FF0280C0CFB064C9CF84C30012BC2D1D9
:102C6000DCF84430DCF83C701344DCF848E0CCF885
:102C70004430DCF8383017449E45CCF83C7026D3FD
:102C8000AEEB0302CCF8482095F829201FFA83FC0C
:102C9000002A42D1B0F8502000F20C4E92B2724499
:102CA000090132F801E03E2BCEF3090E22F801E0D3
:102CB0001BD94FEA531EDB06535A08BF0EF1FF3EE5
:102CC0009BB243EA8E2343EA08039BB212E0BEF1B3
:102CD000000F03D113468CF84CE0D5E70023CCF865
:102CE00048308CF84C307346CEE75BB9535A9BB2F0
:102CF00043F400435352282101FB064663463946FC
:102D0000728E07E74FEA530EDB07535A48BF0EF1A6
:102D1000010E9BB243EA8E23D7E7012AEBD1B0F82C
:102D200050309AB200F20C4313440A0123F802C057
:102D3000E1E7430511D522682046B2F8443023F478
:102D400080631B041B0CA2F8443006F02EF82946C1
:102D50002046BDE8F84FFFF7A6BB47040AD5226816
:102D6000B2F8443023F480431B041B0CA2F8443017
:102D7000FFF7C1BB860405D52268B2F8443023F4BE
:102D80000053F1E7C50419D522682046B2F8403057
:102D900023F004031B041B0CA2F84030B2F84030AF
:102DA00023F008031B041B0CA2F8403006F00EF8B9
:102DB0002268B2F8443023F48053D5E701051BD5CF
:102DC00022682046B2F840309BB243F00803A2F8D4
:102DD0004030B2F8443023F400631B041B0CA2F80B
:102DE0004430B2F840309BB243F00403A2F84030C4
:102DF00005F0E8FFFFF77FBB82050DD5226820466E
:102E0000B2F8443023F400731B041B0CA2F84430C6
:102E100005F0C7FFFFF76FBBC3057FF56CAB2268FA
:102E2000B2F8443023F480739EE700BF11F0800FA6
:102E300070B505464FF0280401F007001AD00126AE
:102E400000FB044129444E70022BCB7008BF0023C5
:102E5000087008BF0B710A6195F8A832012B12D0D7
:102E60000123286885F8A83201F09AF9002085F836
:102E7000A80270BD0026444304F5B4712C442944D3
:102E800084F86961E0E70220F3E711F0800F10B5E4
:102E90004FF02803044601F0070213D002FB033170
:102EA0000144012048700A7094F8A832012B12D016
:102EB0000123206884F8A83201F0D4FA002084F8B5
:102EC000A80210BD534303F5B4710144034400202C
:102ED00083F86901E7E70220F3E770B501F0070521
:102EE000282100266943441801F5B4710144C4E95E
:102EF0005F23C4F8846184F8696184F868510068CC
:102F000001F013FC304670BD282301F0070103FBDC
:102F10000100D0F88401704770B501F00705282141
:102F200001FB05040026C4E90F23012205FB011162
:102F300084F84C200144A364666484F8292084F852
:102F40002850006801F0F1FB304670BD436801F085
:102F500007029A4210B5044622D811F0800F4FF0B4
:102F6000280314D002FB03310144012048700123DF
:102F70000A708B7094F8A8229A4213D0206884F8C3
:102F8000A83201F040FB002084F8A80210BD4B439A
:102F900003F5B47101440344002083F86901E6E7B6
:102FA0000120F3E70220F1E738B5436801F00F0292
:102FB0009A42044625D811F0800F4FF0280301F003
:102FC000070215D002FB033101440120487000259F
:102FD0000A708D7094F8A832012B14D00123206858
:102FE00084F8A83201F02FFB284684F8A85238BD97
:102FF000534303F5B47101440344002083F869018D
:10300000E5E70120F3E70220F1E710B5282411F0ED
:10301000800F1BBF01F0070101FB044104FB01000D
:10302000401808BF00F5B47099B21AB90273C18094
:10303000002010BD012283600273F9E74FF4807312
:1030400093FAA3F3B3FA83F301229B0003F18443C1
:1030500003F560231A6070471C4B82B09A6812F027
:10306000F00F0CD000221A490B6823F00103134320
:103070000B60086800F00100504002B070475A6AC7
:10308000144912F0805F0FD00A6802F4C052B2F502
:10309000C05FE7D1B0F5404FE4D10D4A136843F06B
:1030A000040313600122DEE75A6A42F080525A623A
:1030B0005A6A02F080520192019A0A68596A02F42F
:1030C000C05221F080515962E1E700BF0038024050
:1030D000003C0240007000402DE9F7430446002800
:1030E00060D0914B02689E689F68D00706F00C067E
:1030F00007F480374BD42368990700F19780236841
:10310000D80636D5002E40F0E080874D2B68990513
:1031100002D5A369002B45D06B68206A03F4604395
:10312000984240F2C080FFF797FF00283AD16B68C1
:10313000226A23F4604313436B606B68E26923F0F7
:103140007F4343EA02636B60774B9968236A5B0BAA
:103150005A1C4FF400439340C1F3031273498A5C35
:10316000D340734A1360734B1868FEF759F900286F
:1031700030D12368180700F1E1802368590700F176
:103180000181606A002840F06981002022E0082E59
:1031900002D00C2E08D13FB11B689A03ABD56368EF
:1031A000002BA8D1012015E06268012A15D11A6808
:1031B00042F480321A60FEF77DF90546DFF8688137
:1031C000D8F800309B0396D4FEF774F9401B6428AE
:1031D000F6D9032003B0BDE8F083534D2B68A2B9A4
:1031E00023F480332B602B6823F480232B60FEF7BD
:1031F00061F980462B6898037FF57DAFFEF75AF999
:10320000A0EB08006428F5D9E3E7052A0BBF43F4D7
:10321000802323F480332B602B600BBF2B682B683B
:1032200043F4803323F480232B60C4E7042E02D0C0
:103230000C2E0FD177B93C4A1368990702D5E36881
:10324000012BAFD15368216923F4F85343EA0123DA
:10325000536054E7E268384BB2B101221A60FEF7BE
:1032600029F90746304D2B689A0707D56B68226904
:1032700023F4F85343EA02236B6040E7FEF71AF9A0
:10328000C01B0228EFD9A4E71A60FEF713F9054620
:10329000254F3B689B077FF532AFFEF70BF9401BCC
:1032A0000228F6D995E76B6823F4604303436B600B
:1032B0006B68E26923F07F4343EA02636B60FFF7C8
:1032C000CBFE00283FF440AF6CE7A2691A4BE2B195
:1032D00001221A62FEF7EEF80746134D2B689A0595
:1032E0000DD56B68226A23F4604313436B606B68EF
:1032F000E26923F07F4343EA02636B6039E7FEF73C
:10330000D9F8C01B0228E9D963E71A62FEF7D2F8A0
:103310000546054F3B689B057FF52BAFFEF7CAF8C6
:10332000401B0228F6D954E70038024061A4000887
:103330002401002004000020000047426269724B13
:1033400082B10122C3F88026FEF7B4F805466F4F1C
:103350007B6B9A073FF511AFFEF7ACF8401B0228D4
:10336000F6D936E7C3F88026FEF7A4F80546674F7E
:103370007B6B9B077FF501AFFEF79CF8401B022893
:10338000F6D926E7614B5A6AD00029D44FF00108DC
:103390005A6A42F080525A625B6A03F0805301938A
:1033A000019B5B4D2B68D9051DD5A368574D012B9B
:1033B00029D16B6B43F480736B63FEF77BF841F2AA
:1033C00088390546514F7B6B9B0541D5B8F1000FFD
:1033D0003FF4D7AE4D4A536A23F080535362D0E690
:1033E0004FF00008DDE72B6843F480732B60FEF795
:1033F00061F807462B68DA05D7D4FEF75BF8C01BE7
:103400006428F7D9E5E6ABB96B6B41F2883923F450
:1034100080736B636B6B23F480636B63FEF74AF816
:1034200007466B6B9805D1D5FEF744F8C01B48459D
:10343000F7D9CEE6052B6B6B03D143F480636B6346
:10344000B7E723F480736B636B6B23F48063B3E79C
:10345000FEF730F8401B4845B5D9BAE60C2E3AD0F5
:103460000022294B02281A6627D1FEF723F80646C8
:10347000264D2B6899011AD4AA68D4E90A3122F49E
:103480007D020B431343226B13430122AB601E4B9F
:103490001E4D1A66FEF70EF804462B689A013FF59A
:1034A00074AEFEF707F8001B0228F6D991E6FEF786
:1034B00001F8801B0228DCD98BE6FDF7FBFF0446F0
:1034C000124D2B689B017FF560AEFDF7F3FF001BEB
:1034D0000228F6D97DE601283FF47CAE0B4BA26AA8
:1034E0009B6803F4803191427FF45CAEE16A03F49F
:1034F00070128A427FF456AE226B03F4400393426B
:103500003FF443AE4EE600BF0000474200380240A1
:103510000070004008B5154B9A6802F00C010829AC
:1035200021D00C2903D0042915D1114812E09B6841
:10353000104813F48033C2F38341415C14BF0E483A
:103540000B48C2F3815218BF0023A1FB00010132D6
:10355000FDF7BAFC08BD5868C0F34230431C4FF475
:1035600000409840F6E70448F4E700BF0038024006
:103570000024F40058A4000800127A002DE9F0415C
:103580000D46044610B90120BDE8F081574B1A687A
:1035900002F001028A422AD32268960738D4D00763
:1035A0003ED4524B1A6802F00102AA4200F28C800B
:1035B0002268510700F19180130707D54C4A216911
:1035C000936823F4605343EAC1039360FFF7A2FFBB
:1035D000BDE8F041464B474A9B68C3F30313D35CF5
:1035E000D840454B1860454B1868FDF719BF0129B5
:1035F00002BF1A6842F004021A601A6822F001023F
:103600000A431A601B6803F001038B42BBD1C3E776
:103610003749A0688B6823F0F00303438B60BEE753
:103620006268334B022A1B681CD113F4003FAAD0F6
:103630002F4E41F28838B36823F003031343B3607D
:10364000FDF738FF63680746022B18D1B36803F013
:103650000C03082BA5D0FDF72DFFC01B4045F5D965
:10366000032091E7032A02D113F0007FDFE7012A4C
:1036700002D113F0020FDAE713F4007FD7E7032B30
:103680000AD1B36803F00C030C2B8AD0FDF712FFAC
:10369000C01B4045F5D9E3E7012B10D1B36803F017
:1036A0000C03042B3FF47DAFFDF704FFC01B404526
:1036B000F4D9D5E7FDF7FEFEC01B4045D0D8B3686E
:1036C00013F00C0FF6D16CE71A6822F001021A60B1
:1036D0001B68DA077FF56CAF55E70549E0688B6832
:1036E00023F4E06303438B6066E700BF003C0240C5
:1036F0000038024061A400082401002004000020DA
:103700001F230360214B1A68510332D50522426002
:103710001A6802F00102C2605A68C2F30422026110
:103720001A68C2F3002282615A68120EC2615A6896
:1037300002F4604202625A6B520520D50523836071
:10374000124B5A6B02F0010242611A6812F0807F3C
:1037500014BF0222012242629A6802F4803282621D
:103760009A6802F47012C2629B6803F44003036318
:1037700070471A6812F4803218BF0122C7E75B6BEA
:1037800013F4807318BF0123D9E700BF003802404B
:103790004FF6577238B503680446DA60FDF78AFEC3
:1037A00005462368DB689B0601D5002038BDFDF780
:1037B00081FE401BB0F57A7FF3D90320F6E7F8B518
:1037C00003680546DC6814F0400417D1DA68042762
:1037D00042F08002DA60FDF76DFE06462B68DB687A
:1037E0005B0600D40CB12046F8BDFDF763FE801BDC
:1037F000B0F57A7F84BF01246F77EFE70024F2E70A
:10380000036810B5DA68044622F08002DA609B682B
:103810009B0601D5002010BDFFF7BAFF0028F9D0A4
:10382000042301206377F6E710B50446002841D051
:10383000437F03F0FF0213B9027703F0C5FC0223B4
:1038400063772368DA68D20603D501230020637703
:1038500010BDCA225A62532220465A62FFF7AFFFB8
:1038600010BB236820699A6822F4E00222F040022B
:103870009A60626899680243606902430A439A60E9
:10388000E268A1681A611A69204642EA01421A6197
:10389000FFF7B6FF40B92368A1691A6C22F48022B1
:1038A0001A641A6C0A431A64FF2223685A620028B9
:1038B000CBD0CDE70120CBE70023092803D840EA8D
:1038C0000310C0B270470A380133C0B2F5E72DE9E2
:1038D000F041037F0646012B0F464FF0020042D015
:1038E000012370773377316838787D7897F80280D4
:1038F000002A3AD18A6812F0400208BFFA70FFF736
:10390000DBFF02462846FFF7D7FF04464046FFF795
:10391000D3FFFB7840EA835343EA024343EA04249B
:10392000CA234B62532330464B62FFF748FFA8B9C6
:10393000326804F07F3424F0FE441460936823F46A
:10394000802393609168D7E9033003430B433046EB
:103950009360FFF755FF08B901237377FF2233689F
:103960005A6200233377BDE8F0818A682D0212F095
:10397000400208BFFA70FC7845EA004545EA0803B2
:1039800043EA8454CCE7F8B5037F0646012B4FF099
:10399000020037D00123707733770D78C8784C78E0
:1039A0008F786D037ABBE30603D524F010040A3444
:1039B0004C70FFF781FF02464878FFF77DFF044611
:1039C0003846FFF779FF054345EA0243CA2243EA36
:1039D0000424336830465A6253225A62FFF7EFFEDE
:1039E00058B9326824F07F4424F0C0043046546053
:1039F000FFF706FF08B901237377FF2233685A6285
:103A000000233377F8BD45EA004545EA0703DDE7C3
:103A10000A22030900F00F0002FB0300C0B2704746
:103A200038B50368986A486018691B68C0F30E00CF
:103A3000C3F3062503F07F048860C3F30540C3F396
:103A4000805308704D708C70CB7052B9FFF7E0FF57
:103A500008702846FFF7DCFF48702046FFF7D8FFC4
:103A60008870002038BD38B503685B68C3F3074031
:103A7000C3F3042503F03F04C3F34233C8704D7011
:103A80008C700B7052B9FFF7C3FFC8702846FFF760
:103A9000BFFF48702046FFF7BBFF8870002038BD8D
:103AA00003682DE9F3419907044601D100205BE04A
:103AB0004E4B5A6AD20045D401255A6A42F08052D0
:103AC0005A625B6A03F080530193019B484E33684E
:103AD000DF0539D5454B6268196802F0C04001F036
:103AE000C041884204D1A16801F0C041814207D0A1
:103AF00002F44031B1F5403F02D11968890372D414
:103B00005B6B13F4403332D12668B70759D4F307FF
:103B100010D56068354A00F44031B1F5403F06D118
:103B2000136800F0C04023F0C04303431360536B9D
:103B300019435163002DB9D02C4A536A23F08053A6
:103B40005362B3E70025C1E7336843F48073336001
:103B5000FDF7B0FC07463368D805BBD4FDF7AAFCD7
:103B6000C01B6428F7D9032002B0BDE8F08102F43D
:103B700040329A42216801D0CE0706D4A26802F4EE
:103B800040329A42C0D08807BED50120174E194A4C
:103B9000736BC2F8DC06002023F44031C2F8DC0667
:103BA0007163D905B0D5FDF785FC41F28838074629
:103BB000736B9A05A8D4FDF77DFCC01B4045F7D96F
:103BC000D1E7A068094A00F44031B1F5403F06D181
:103BD000136800F0C04023F0C04303431360536BED
:103BE0001943516393E70120BEE700BF003802404C
:103BF00000700040000047422DE9F3411C46164684
:103C00000F460546FDF756FC3444241AFDF752FCD6
:103C10008046234B1B68C3F3CB3363432A6801936D
:103C2000936837EA030301D000202EE0731CF7D01D
:103C3000FDF740FCA0EB0800A04229D32B685A688E
:103C400022F0E0025A606A68B2F5827F0AD1AA685F
:103C5000B2F5004F02D0B2F5806F03D11A6822F09E
:103C600040021A60AA6AB2F5005F07D11A6822F40E
:103C700000521A601A6842F400521A60012385F853
:103C800051300023032085F8503002B0BDE8F081A8
:103C9000019B002B019B08BF0024013BBEE700BF36
:103CA0002401002038B5134642680446B2F5827FED
:103CB0001FD18268B2F5004F02D0B2F5806F07D1F4
:103CC0002568B2F5806F286820F04000286007D092
:103CD0000A4680212046FFF78FFF20B9002038BD1B
:103CE0000A460121F6E7636D032043F02003636574
:103CF000F5E70A460121EEE737B51346124A0446B6
:103D00001568124AB5FBF2F54FF47A7255434268D2
:103D10000195B2F5827F0BD10A468021FFF76CFF37
:103D200078B10320636D43F02003636503B030BDB9
:103D3000019B33B1019B013B019323689B681B06E8
:103D4000F6D40020F2E700BF2401002000366E0107
:103D500010B50446002855D0436A002B4ED1426866
:103D6000B2F5827F00D0C3610023A36294F8513082
:103D700003F0FF0223B9204684F8502003F0DAF95B
:103D80000223216884F851300B68A06823F04003B7
:103D90000B60636800F4044003F482730343E0683B
:103DA000A26900F400600343206900F002000343AD
:103DB000606900F00100034302F400700343E0690E
:103DC000120C00F038000343206A02F0040200F0F5
:103DD00080000343A06A00F4005003430B60636A51
:103DE000002003F010031A434A60CB6923F40063F8
:103DF000CB610123606584F8513010BD0023C0E918
:103E00000433B1E70120F8E72DE9F7431E4690F8A7
:103E100050300446012B0D4691460A9F00F0EB807E
:103E2000012380F85030FDF745FB94F8513080466F
:103E3000012B6268D9B20AD0B2F5827F40F0D980F6
:103E4000A368002B40F0D580042940F0D2800DB942
:103E500001206FE0B9F1000FFAD0002EF8D094F8ED
:103E60005130C4F83890042B1CBF052384F851301E
:103E700000236365C4E910332368E687E686196882
:103E8000A687490658BF1968256358BF41F040010D
:103E9000A68658BF1960E168B1F5006F50D10AB12C
:103EA000012E07D135F8022BDA60E38E2563013B42
:103EB0009BB2E3860125E38E9BB263B9E38F9BB28D
:103EC0004BB9424639462046FFF716FF00287FD0FF
:103ED00020236365BCE721688B689E070DD5E38EC0
:103EE0009BB253B14DB10025236B33F8022BCA604E
:103EF0002363E38E013B9BB2E3868A6812F00102E2
:103F00000CD0E38F9BB24BB11546C968A36B23F865
:103F1000021BA363E38F013B9BB2E387FDF7CAFA61
:103F2000A0EB0800B842C6D3781CC4D001230320FC
:103F300084F85130002384F8503003B0BDE8F0839A
:103F40000AB1012E08D12A781A73236B0133236337
:103F5000E38E013B9BB2E38601252DE02268936846
:103F600099070ED5E38E9BB25BB155B10025236B4B
:103F70001B781373236B01332363E38E013B9BB2E6
:103F8000E3862268916811F001010DD0E38F9BB2A6
:103F900053B10D46D268A36B1A70A36B0133A363B0
:103FA000E38F013B9BB2E387FDF784FAA0EB0800A7
:103FB000B8420AD37B1CB9D1E38E9BB2002BCDD182
:103FC000E38F9BB2002BC9D17BE7002FF4D1ADE783
:103FD000A36833B923680190DA6801929B68019362
:103FE000019B636D002B7FF433AF012384F85130C4
:103FF000A0E702209EE702209FE72DE9F3471D4638
:1040000090F851300446012B8A469046DEB240F0CB
:104010009C804368B3F5827F0ED1836863B9042323
:1040200080F85130134600950A46FFF7EDFE06462C
:10403000304602B0BDE8F08794F85030012B00F014
:104040008680012384F85030FDF734FA8146BAF1B6
:10405000000F64D0B8F1000F61D000270423A268DC
:1040600084F85130B2F5004F6765C4E91077A4F8C1
:104070003E802368C4F838A0A4F83C802763A78654
:10408000E78607D11A6822F040021A601A6822F403
:1040900080421A601A6857065EBF1A6842F04002F2
:1040A0001A60E368F3B1E38F9BB2FBB123689A68AF
:1040B000D2073BD5DA68A36B23F8022BA363E38F07
:1040C000013B9BB2E387EEE723689A68D0071AD5D5
:1040D0001B7BA26B1370A36B0133A363E38F013BC4
:1040E0009BB2E387E38F9BB2002BEDD14A46294672
:1040F0002046FFF7D7FD28BB636D83B901221E461A
:1041000084F851200BE0FDF7D5F9A0EB0900A84297
:1041100009D3691CE6D00123032684F8513000231B
:1041200084F8503084E7002DDCD1F4E7FDF7C2F9C4
:10413000A0EB0900A84202D36B1CB4D0EBE7002D22
:10414000B1D1E8E720236365D6E70226E7E7022638
:104150006EE703464FF43F420020A3F84400A3F863
:1041600040207047B0F8403023F47C535B045B0C74
:10417000A0F840300020704784B010B5044603A872
:1041800080E80E0000200123A4F84030A4F840008D
:10419000A4F84400A4F85000BDE8104004B07047F3
:1041A000F0B50A78CE7830F82240034624F4EC4487
:1041B00024F070042404240C032E4CD8DFE806F00D
:1041C00002484644304644F4007448F280073C43B9
:1041D00023F8224033F82240DFF87CC2A4B204EA7C
:1041E0000C0414433C4323F822400C7B03EB021ED7
:1041F000002C40F08B80CD884C786D086D0064B346
:10420000B3F85040A4B27444A4F8005433F8221018
:104210004F060AD533F82250ADB205EA0C0545F435
:10422000004545F0C00523F8225033F822108B4C8E
:1042300089B2012E01EA040101D081F0200141F48C
:10424000004141F08001BFE044F4C0640020BCE7BD
:1042500044F48064FAE70120B7E7B3F85040A4B211
:104260007444A4F80854B3F85040A4B27444B4F8A9
:104270000C54C5F30905A4F80C540D693E2D2FD933
:10428000B4F80C146E09ED0608BF06F1FF3689B2CA
:1042900041EA86216FEA41416FEA514189B2A4F8AF
:1042A0000C1433F822104F040DD533F8221021F4EA
:1042B000E04121F070010904090C41F4404141F052
:1042C000800123F82210664CCAB9198889B22140AE
:1042D00081F4405141F4004141F080011980F0BD6A
:1042E00015B9B4F80C14D5E7E907B4F80C144FEA83
:1042F000550648BF013689B241EA8621CEE733F838
:10430000221089B2214081F4005198E7022E33F83F
:1043100022505CD1ADB205EA0C0545F4014545F0EB
:10432000800523F82250B3F850400D89A4B26D08DF
:1043300074446D00A4F800544D89B3F850406D08E2
:10434000A4B274446D00A4F808544978002946D1F9
:1043500033F822104E040DD533F8221021F4E04139
:1043600021F070010904090C41F4404141F0800141
:1043700023F8221033F822104D060DD533F8221001
:1043800021F4E04121F070010904090C41F40041DD
:1043900041F0C00123F8221048F2800433F82210C3
:1043A00021F4804121F070010904090C81F440518D
:1043B000214323F8221033F8221021F4E04121F0A8
:1043C00040010904090C214323F8221087E725F452
:1043D000E24525F070052D042D0C3D43A1E733F88F
:1043E00022104C040DD533F8221021F4E04121F0C5
:1043F00070010904090C41F4404141F0800123F8A7
:10440000221033F8221049060DD533F8221021F47A
:10441000E04121F070010904090C41F4004141F030
:10442000C00123F8221033F822100C4C89B221402D
:10443000012E18BF81F0200141F4004141F08001BC
:1044400023F8221033F8221021F4804121F070016A
:104450000904090CF3E600BF8F8FFFFFBF8FFFFF3A
:104460008FBFFFFF4A780B78097BD9BB0AB330F8BE
:10447000232051060DD530F8232022F4E04222F00B
:1044800070021204120C42F4004242F0C00220F802
:10449000232030F8232022F4E04222F040021204CC
:1044A000120C42F4004242F0800220F82320002047
:1044B000704730F8232052040DD530F8232022F421
:1044C000E04222F070021204120C42F4404242F028
:1044D000800220F8232030F8232022F4804222F0AA
:1044E0007002DCE7002A48D130F8232051040DD5B2
:1044F00030F8232022F4E04222F070021204120C61
:1045000042F4404242F0800220F8232030F8232079
:1045100052060DD530F8232022F4E04222F070023A
:104520001204120C42F4004242F0C00220F8232090
:1045300048F2800130F8232022F4E04222F0700299
:104540001204120C42F4004242F0C00220F8232070
:1045500030F8232022F4804222F070021204120C60
:104560000A4320F8232030F8232022F4E04222F0EE
:1045700040021204120C0A4397E730F8232051043A
:104580000DD530F8232022F4E04222F0700212040C
:10459000120C42F4404242F0800220F8232030F80E
:1045A000232052060DD530F8232022F4E04222F0D9
:1045B00070021204120C42F4004242F0C00220F8D1
:1045C000232048F2800130F8232022F4E04222F038
:1045D00070021204120C42F4404242F0800220F8B1
:1045E000232030F8232022F4E04222F0400212047B
:1045F000120C0A4320F8232030F8232022F48042B2
:1046000022F07002B5E74B780A788BB130F822308F
:1046100023F4E04323F040031B041B0C83F010033E
:1046200043F4004343F0800320F822300020704719
:1046300030F8223023F4804323F070031B041B0C5A
:1046400083F48053ECE70B7B3BBB4B780A7833B3A6
:1046500030F822305B060DD530F8223023F4E043E9
:1046600023F070031B041B0C43F4004343F0C0030E
:1046700020F82230CB78012B0FD030F8223023F4F1
:10468000E04323F040031B041B0C83F0200343F49E
:10469000004343F0800320F822300020704730F8B8
:1046A00022305B040DD530F8223023F4E04323F0B0
:1046B00070031B041B0C43F4404343F0800320F8B9
:1046C000223030F8223023F4804323F070031B049F
:1046D0001B0C83F44053DAE701220346A0F8402084
:1046E00000200322A3F84400A3F84020704711B92A
:1046F0008023A0F84C300020704700207047002035
:104700007047B0F8440080B2704700EB42020133BA
:1047100002F580625B0802EB8303934200D170478D
:1047200031F8020B22F8040BF7E72DE9F0410C46B3
:10473000497805460129227B40F01E81D4F810E01B
:10474000A6696169764528BF76460ABBB6B2E2889B
:104750003346FFF7DAFFB5F85020217890B205F222
:104760000442090102448E52227835F8223023F4A3
:10477000E04323F040031B041B0C83F030030020B4
:1047800043F4004343F0800325F82230BDE8F08174
:10479000E2782778022A236A4FEA071C40F0D68085
:1047A0009E4530F8272080F0BA8022F4E04222F0C3
:1047B00070021204120C42F4014242F0800220F80E
:1047C000272030F82780B0F850209B1B18F04008B5
:1047D000236297B2B3B252D000F20C423A4422F8AC
:1047E0000C306289FFF791FF276A236961699F4254
:1047F0008ABFBB1B00233746627831442362616164
:10480000BBB282BBB5F85000267882B205F20440F4
:1048100036011044325A3E2FC2F30902325214D9E3
:10482000FA06325A4FEA571C08BF0CF1FF3C92B20D
:1048300042EA8C226FEA42426FEA524292B232520C
:1048400022892846FFF761FF8EE70FB9325AF1E758
:10485000325A4FEA570CFF0748BF0CF1010C92B2D5
:1048600042EA8C22EAE7012AEAD1B5F85020207802
:1048700096B205F20442000132448352E0E700F2AE
:1048800004423A4422F80C302289FFF73EFF276A9F
:10489000236961699F428ABFBB1B434637466278E2
:1048A000314423626161BBB26ABBB5F8500026781F
:1048B00082B205F20C4036011044325A3E2FC2F348
:1048C0000902325211D9FA06325A4FEA571C08BF70
:1048D0000CF1FF3C92B242EA8C226FEA42426FEA4C
:1048E000524292B232526289ABE70FB9325AF4E7C0
:1048F000325A4FEA570CFF0748BF0CF1010C92B235
:1049000042EA8C22EDE7012AEDD1B5F8502020785B
:1049100096B205F20C42000132448352E3E722F4DE
:10492000E24222F070021204120C42F4004242F001
:10493000800220F82720B0F850209BB296B200F2F7
:104940000442324422F80C3022897BE730F82720D9
:104950009B1B12F0400FB0F850202362B3B296B206
:1049600006D000F20C42324422F80C30628969E72A
:1049700000F204423244E5E7002A31D1A0692369FC
:104980002178984284BFC21A1846A261B5F8502017
:10499000090193B205F20C421A448B5A3E28C3F324
:1049A00009038B520DD98B5A4609C00608BF06F180
:1049B000FF369BB243EA86236FEA43436FEA5343D1
:1049C0000BE008B9535AF7E7C3078B5A4FEA500672
:1049D00048BF01369BB243EA86239BB253526AE03A
:1049E000E378022B7CD100294BD1B0F8501020780D
:1049F0008BB205F2044100011944435AC3F3090381
:104A0000435223693E2B20D9425A5E09DF0608BF74
:104A100006F1FF3692B242EA86226FEA42426FEA1C
:104A2000524292B24252B5F85010227805F20C4030
:104A300089B212010144505A3E2BC0F30900505272
:104A400010D8002B43D1535A15E00BB9425AE4E772
:104A5000DA07425A4FEA530648BF013692B242EA99
:104A60008622DEE75809DF06535A08BF00F1FF30FF
:104A70009BB243EA80236FEA43436FEA53439BB2FE
:104A80005352E369BBB144F24003227835F8221057
:104A900003EA01008B4300D068B935F8223023F4D3
:104AA000E04323F070031B041B0C43F4004343F06A
:104AB000C00325F82230227835F8223023F48043D1
:104AC00023F070031B041B0C83F4405357E6580873
:104AD000DE07535A48BF01309BB243EA8023CEE73A
:104AE000012B58D1A3692269934294BF0020981AE0
:104AF000A06188BF13460029DDD1B5F85010207899
:104B00008AB205F2044100011144425A3E2BC2F31D
:104B10000902425229D9DA06425A4FEA531608BF0F
:104B200006F1FF3692B242EA86226FEA42426FEA0B
:104B3000524292B24252B5F85010227805F20C401F
:104B400089B212010144505A3E2BC0F30900505261
:104B500017D8002B3FF436AF5808DB07535A48BF2D
:104B600001309BB243EA802337E70BB9425ADCE7B6
:104B7000425A5E08DF0748BF013692B242EA8622F7
:104B8000D7E75809DE06535A08BF00F1FF309BB241
:104B900043EA802310E70120F8E500EB4202F0B57C
:104BA00002F580625D080C4617462E46023436B97F
:104BB000DB0744BF32F8253001F81530F0BD37F877
:104BC000040B013E80B204F8020C000A04F8010C48
:104BD000ECE708B500F0EAF9002008BD30B504465E
:104BE000228AB4F9084085B0842C0CBF0024033419
:104BF00003AD0B46D0E90010CDE9004500F016F9F1
:104C0000012814BF0020039805B030BD08B5012865
:104C100038BF012000F0ECFA002008BD1FB50023CA
:104C2000CDE90233EFF30583D3B102AB0093012248
:104C300003AB00F0EDFB012804D04FF0004005B0BD
:104C40005DF804FB029B4BB14FF0E0234FF0805224
:104C5000C3F8042DBFF34F8FBFF36F8F0398EEE7B8
:104C6000012203AB00F070FB0128F7D0E5E7002339
:104C700030B585B0044615460293EFF3058010B1B8
:104C80008223019307E0134602AA00F019FB0128D2
:104C90000BD045B9019504AB13E9070084E8070080
:104CA000204605B030BD4023EBE7029B002BB4BF8C
:104CB00086230823E5E708B500F0F2FA012803D0BF
:104CC000BDE8084000F0A6BD08BD4FF0FF3200F17E
:104CD0000803C0E9022343600361002303607047B7
:104CE00000230361704743689A684B608A609A6842
:104CF000516099600368086101330360704730B503
:104D00000C68631C0AD103695A684A6091608B6021
:104D10005960036808610133036030BD00F1080287
:104D2000134652681568A542FAD9EDE70369D0E940
:104D300001128A6051605968814208BF5A6000229E
:104D400002611A68013A1A6018687047F8B5184C81
:104D50000646256860680F460430FFF7E7FF38B95C
:104D60006268A368D16A01228A4023EA0203A36031
:104D7000731C07D137B161680E480431BDE8F840B3
:104D8000FFF7B1BF6368AD195D6006D3206A616843
:104D9000BDE8F8400431FFF7B2BF606A61680431D2
:104DA000FFF7ADFFA36AAB4288BFA562F8BD00BFA5
:104DB0006802002074020020064B5A6A12681AB971
:104DC0004FF0FF329A6270475A6AD268D2685268CE
:104DD000F8E700BF6802002080B54FF0E0264FF0F2
:104DE0008057114CA36D4BB9E36D012BFAD9C6F86E
:104DF000047DBFF34F8FBFF36F8FF3E700F0B2FC7A
:104E0000E36CDD68281DFFF791FF636D013B63656F
:104E1000A36D013BA36500F0C5FC286B00F016FCF8
:104E2000284600F013FCDDE7680200202DE9F84F6A
:104E30009500074628460E46984600F087FB8146B7
:104E4000002800F0A1805C2000F080FB04460028D0
:104E500000F097802A46C0F83090A521484604F01B
:104E600035F9D4F830B0731E04F134020F3613F85C
:104E7000011F02F8011B09B1B342F8D10A9E4FF09D
:104E8000000A062E28BF062604F104094846C4E994
:104E9000136AE66284F843A0043DFFF721FFC6F1E0
:104EA000070604F118005D44FFF71AFFC4F854A088
:104EB000424639462461A661646284F858A025F010
:104EC000070000F027FC0B9B206003B11C60354DF0
:104ED00000F048FC6B6D05F15C0701336B656E6893
:104EE000002E54D16C606B6D012B20D1B84640462A
:104EF0000136FFF7EAFE072E08F11408F7D12A4E13
:104F0000304606F11408FFF7E0FE4046FFF7DDFEED
:104F1000A6F1BC00FFF7D9FEA6F1A800FFF7D5FE69
:104F2000A6F1DC00FFF7D1FE6E62C5F820800126F5
:104F30001420D5F81431E26AA9680133C5F8143198
:104F4000636406FA02F30B4300FB02704946AB6050
:104F5000FFF7C9FE00F026FCD5F8103173B16B687D
:104F6000DA6AE36A9A4209D24FF0E0234FF08052A6
:104F7000C3F8042DBFF34F8FBFF36F8F3046BDE8EA
:104F8000F88F484600F062FB4FF0FF36F6E7D5F8A1
:104F90001031002BCBD16B68E26ADB6A9A4228BFE2
:104FA0006C60C4E7680200205003002037B500257C
:104FB000164C802204F58E73019315492B46154833
:104FC0000095FFF733FF012812D14FF0500383F310
:104FD0001188BFF36F8FBFF34F8F4FF0FF33A36282
:104FE000C4F81001256003B0BDE8304000F03ABCC1
:104FF000013008D14FF0500383F31188BFF36F8F56
:10500000BFF34F8FFEE703B030BD00BF6802002042
:105010009CA40008D94D0008034AD2F81831013386
:10502000C2F81831704700BF68020020014B1868B1
:10503000704700BF680200202DE9F84F354CD4F8C6
:105040001831002B5FD1276801372760B7B9636A31
:105050001B6843B14FF0500383F31188BFF36F8F88
:10506000BFF34F8FFEE7636A226A62622362D4F85D
:1050700020310133C4F82031FFF79EFEA36A0025DA
:10508000BB4210D914226368DB6A02FB0343DB6D69
:10509000022B28BF0125D4F82831002B0CBF28464D
:1050A0000120BDE8F88F4FF0010A4FF01409DFF836
:1050B0006880636A1B681BB94FF0FF33A362E1E7A6
:1050C000636ADB68DE6873689F42F7D306F1040BFE
:1050D0005846FFF72BFEB36A1BB106F11800FFF725
:1050E00025FEF06AA2680AFA00F31343594609FB49
:1050F0000080A360FFF7F7FD6368F26ADB6A9A42FB
:1051000028BF0125D5E7D4F8243100250133C4F8A0
:105110002431C0E768020020C40200202DE9F843D2
:10512000324CD4F8183143B94FF0500383F311884F
:10513000BFF36F8FBFF34F8FFEE700F013FBD4F880
:105140001831013BC4F81831D4F818512DB100249E
:1051500000F028FB2046BDE8F883636D002BF6D0F5
:1051600001264FF0140804F15C071CE0A36BDD6816
:1051700005F1040905F11800FFF7D8FD4846FFF7CF
:10518000D5FDE86AA26806FA00F31343494608FB16
:105190000070A360FFF7A7FD6368EA6ADB6A9A42C2
:1051A00001D3C4F82861E36A002BDFD10DB1FFF70A
:1051B00003FED4F824514DB10126FFF73DFF08B19D
:1051C000C4F82861013DF8D1C4F82451D4F828313D
:1051D000002BBCD04FF0E0234FF08052C3F8042DD9
:1051E000BFF34F8FBFF36F8F0124B1E76802002038
:1051F00008B550B94FF0E0234FF08052C3F8042DAA
:10520000BFF34F8FBFF36F8F08BD0B4BD3F818114F
:1052100041B14FF0500383F31188BFF36F8FBFF399
:105220004F8FFEE7FFF7F8FEFFF790FDFFF776FFE1
:105230000028DFD0E8E700BF68020020174A10B559
:10524000D2F818311BB10123C2F8283110BDC2F8C1
:1052500028319368B3FA83F31421DBB2C3F11F033F
:1052600059435018C46D44B94FF0500383F311886B
:10527000BFF36F8FBFF34F8FFEE7046E1144646876
:1052800064318C4208BF6168046608BF016614215E
:1052900001FB03231B6EDB685360D7E76802002025
:1052A000064BD3F8102132B1D3F81831002B0CBFC4
:1052B0000220002070470120704700BF68020020D4
:1052C0002DE9F0411F4C1E4680460F46154600F062
:1052D00049FA636893F85830022B16D001216268AE
:1052E000536D23EA08035365636883F8581066B169
:1052F0003046FFF72BFD4FF0E0234FF08052C3F80C
:10530000042DBFF34F8FBFF36F8F00F04BFA00F007
:1053100029FA15B163685B6D2B60636893F85830A8
:10532000022B03BF62680125536D002504BFBB43F8
:1053300053650022636883F8582000F033FA28464A
:10534000BDE8F08168020020F8B50F4616461D46FC
:10535000044640B94FF0500383F31188BFF36F8FB9
:10536000BFF34F8FFEE700F0FDF90DB1636D2B60C9
:10537000022394F85850721EEDB284F85830032A74
:105380000AD8DFE802F002060410616D0F4367657A
:1053900002E0636D01336365012D08D0012500F043
:1053A00001FA2846F8BD022DF1D10025F7E7271DA7
:1053B0003846FFF7BBFC1420144EE26AB16805FAC8
:1053C00002F30B43B36006F15C0300FB0230394685
:1053D000FFF789FCA36A43B14FF0500383F31188B0
:1053E000BFF36F8FBFF34F8FFEE77368E26ADB6A2C
:1053F0009A42D3D94FF0E0234FF08052C3F8042DE6
:10540000BFF34F8FBFF36F8FC9E700BF6802002063
:105410002DE9F843DDF82080894616461D460446EE
:1054200040B94FF0500383F31188BFF36F8FBFF380
:105430004F8FFEE700F06EFAEFF311874FF0500345
:1054400083F31188BFF36F8FBFF34F8F0DB1636D7F
:105450002B60022394F85850721EEDB284F8583035
:10546000032A07D8DFE802F0020D1311616D41EA4B
:1054700009016165012D0DD0012087F31188BDE878
:10548000F883636D01336365F4E7022D37D0C4F808
:105490005490EFE7A36A43B14FF0500383F31188B0
:1054A000BFF36F8FBFF34F8FFEE7164ED6F818315C
:1054B000EBB904F104094846FFF738FC14204946CB
:1054C000E36AB2689D40154306F15C0200FB0320CD
:1054D000B560FFF708FC7368E26ADB6A9A42CBD9D1
:1054E0000120B8F1000F07D0C8F80000C5E704F1AB
:1054F000180106F12C00ECE7C6F82801BDE70020F2
:10550000BBE700BF680200200F4B30B51D461A46AE
:105510001B688342FBD354681119884201BF41685C
:10552000104609195160446801198B4206D1A968D7
:105530008B421FBF59681B68091941609042036084
:1055400018BF106030BD00BF940300202DE9F0416A
:105550003C4D0446FFF760FDAB68F3B93A494E078E
:105560001DBFCB1D23F0070301F540524FF44052FD
:105570001CBF1946D21A00230A44083A22F0070237
:105580006B602960C2E90033531AC1E90023C5E901
:1055900003334FF00043AA606B61D5F8148018EA1A
:1055A000040F4AD1002C3BD004F1080360071CBF54
:1055B00023F007030833002B3FD02F699F423CD3D1
:1055C0002E68204872689A4201D23168A1B9A96850
:1055D000B14232D03168D21A102A0468016012D95F
:1055E000F01841070BD04FF0500383F31188BFF33D
:1055F0006F8FBFF34F8FFEE730460E46E2E7426003
:105600007360FFF781FF7368E968FF1A48EA0303D4
:10561000736000238F422F6138BFEF60083433601E
:10562000FFF77CFD63070AD04FF0500383F3118826
:10563000BFF36F8FBFF34F8FFEE70024F0E72046E4
:10564000BDE8F08194030020AC03002038B5044687
:1056500068B3174D50F8043C6A69134208D14FF003
:10566000500383F31188BFF36F8FBFF34F8FFEE7B3
:1056700050F8081C41B14FF0500383F31188BFF379
:105680006F8FBFF34F8FFEE723EA020340F8043C1D
:10569000FFF7C2FC2A6954F8043CA4F10800134443
:1056A0002B61FFF731FFBDE83840FFF737BD38BD4C
:1056B0009403002006480068006880F3088862B6FA
:1056C00061B6BFF34F8FBFF36F8F00DF00BF0000E5
:1056D00008ED00E0002382B001930D4B1B680133FD
:1056E00008D04FF0500383F31188BFF36F8FBFF3DF
:1056F0004F8FFEE74FF0500383F31188BFF36F8F96
:10570000BFF34F8F019B002BFCD002B0704700BF4E
:10571000080000204FF0807340F8043C054B21F056
:10572000010140F8081C40F80C3C40F8202C40389F
:10573000704700BFD55600080000000000000000C0
:10574000074B19680868B0E8F00F80F30988BFF3C9
:105750006F8F4FF0000080F311884EF00D0E7047F0
:105760006C0200204FF0500383F31188BFF36F8F5A
:10577000BFF34F8F0A4A13680133012B13600ED118
:105780004FF0E023D3F8043DDBB243B14FF05003B8
:1057900083F31188BFF36F8FBFF34F8FFEE770471E
:1057A00008000020084A136843B94FF0500383F300
:1057B0001188BFF36F8FBFF34F8FFEE7013B13607C
:1057C0000BB983F311887047080000200000000027
:1057D000EFF30980BFF36F8F0D4B1A6820E9F00FCC
:1057E00010602DE908404FF0500080F31188FFF75A
:1057F00025FD4FF0000080F31188BDE808401968CE
:105800000868B0E8F00F80F30988BFF36F8F704726
:105810006C02002008B54FF0500383F31188BFF3EA
:105820006F8FBFF34F8FFFF707FC28B14FF0E023D6
:105830004FF08052C3F8042D002383F3118808BD74
:105840004FF0E02200234FF47A7113619361044B0F
:105850001B68B3FBF1F3013B5361072313617047EE
:105860002401002013B5284B00211A78D2B20192EE
:10587000FF221A701B78254ADBB28DF803309DF8A1
:10588000033003F050031370072353609DF80300A7
:105890005C1E00060CD411B1032B536011D04FF0E5
:1058A000500383F31188BFF36F8FBFF34F8FFEE771
:1058B0009DF8033001215B00DBB28DF803302346F5
:1058C000E4E74FF440735360019B0F4ADBB213705F
:1058D0004FF0E0230024D3F8202D42F47002C3F8E7
:1058E000202DD3F8202D42F07042C3F8202DFFF771
:1058F000A7FF074B1C60FFF7DDFEFFF79FFC20466C
:10590000FFF7E8FE02B010BD00E400E0AC33002079
:1059100008000020EFF305830F2B114A0DD9114920
:105920005B5C1178994208D94FF0500383F31188DA
:10593000BFF36F8FBFF34F8FFEE74FF0E023D3F835
:105940000C3D526803F4E063934208D94FF05003D2
:1059500083F31188BFF36F8FBFF34F8FFEE770475C
:10596000AC330020F0E300E0D0F8943210B56BB116
:10597000D0F8904294F80002FF2807D09B68214697
:1059800094F801229847FF2384F80032002010BDCC
:1059900043230380004870470C000020432303800A
:1059A00000487047500000204323038000487047A0
:1059B000940000200A23038000487047D80000208C
:1059C00038B50446D0F8905203F09DFAD4F89032DE
:1059D000C5F80C024BB1D4F89432D5F80402DB6858
:1059E00005F503719847002038BD0220FCE7F8B5A3
:1059F000D0F89062D6B1142202FB0102D4698CB1B6
:105A00002827D0F8983207FB0135AB6BB4FBF3F5D0
:105A100003FB154434B9D4612346224603F065FAEA
:105A20002046F8BD0020C6F81402FAE70220F8E785
:105A30002DE9F7434FF000080A78054612F060049C
:105A40000E46D0F890728DF80580ADF8068028D00B
:105A5000202C42D1CC884B78E4B1120611D5D0F875
:105A600094223946D2F8089018462246C84739464B
:105A70002846F28800F04DFC4446204603B0BDE8BD
:105A8000F0832246394687F8003287F8014200F059
:105A900055FCF1E7D0F89422184695682246A847AD
:105AA000EBE74B780A2B0CD00B2B12D0ABB990F84C
:105AB0007432032B11D102220DF1060100F029FCF2
:105AC000DBE790F87432032B07D101220DF10501B9
:105AD000F4E790F87432032BCFD03146284600F01B
